{
  "contractName": "Matching",
  "abi": [
    {
      "constant": true,
      "inputs": [
        {
          "internalType": "address",
          "name": "",
          "type": "address"
        },
        {
          "internalType": "uint256",
          "name": "",
          "type": "uint256"
        }
      ],
      "name": "matches",
      "outputs": [
        {
          "internalType": "address",
          "name": "",
          "type": "address"
        }
      ],
      "payable": false,
      "stateMutability": "view",
      "type": "function"
    }
  ],
  "bytecode": "0x608060405234801561001057600080fd5b5061012e806100206000396000f3fe6080604052348015600f57600080fd5b506004361060285760003560e01c80631a9802e914602d575b600080fd5b607660048036036040811015604157600080fd5b81019080803573ffffffffffffffffffffffffffffffffffffffff1690602001909291908035906020019092919050505060b8565b604051808273ffffffffffffffffffffffffffffffffffffffff1673ffffffffffffffffffffffffffffffffffffffff16815260200191505060405180910390f35b6000602052816000526040600020816064811060d057fe5b016000915091509054906101000a900473ffffffffffffffffffffffffffffffffffffffff168156fea265627a7a723158201d8889d580c3157e23444cb69499e3a4b0af24c73d740c57ff7dcff96f19563364736f6c63430005100032",
  "source": "pragma solidity >=0.4.25;\n\ncontract Matching {\n    mapping(address => address[100]) public matches;\n}\n",
  "sourcePath": "/home/neil/Programming/chain-d/contracts/Matching.sol",
  "compiler": {
    "name": "solc",
    "version": "0.5.16+commit.9c3226ce.Emscripten.clang"
  },
  "schemaVersion": "3.4.3",
  "updatedAt": "2021-11-11T16:30:06.124Z",
  "devdoc": {
    "methods": {}
  },
  "userdoc": {
    "methods": {}
  }
}