{
  "contractName": "Matching",
  "abi": [
    {
      "inputs": [],
      "payable": true,
      "stateMutability": "payable",
      "type": "constructor"
    },
    {
      "payable": true,
      "stateMutability": "payable",
      "type": "fallback"
    },
    {
      "constant": true,
      "inputs": [
        {
          "internalType": "address",
          "name": "",
          "type": "address"
        },
        {
          "internalType": "uint256",
          "name": "",
          "type": "uint256"
        }
      ],
      "name": "swipes",
      "outputs": [
        {
          "internalType": "bytes",
          "name": "encryptedAddress",
          "type": "bytes"
        },
        {
          "internalType": "uint256",
          "name": "timestamp",
          "type": "uint256"
        },
        {
          "internalType": "uint256",
          "name": "fee",
          "type": "uint256"
        }
      ],
      "payable": false,
      "stateMutability": "view",
      "type": "function"
    },
    {
      "constant": true,
      "inputs": [],
      "name": "getBalance",
      "outputs": [
        {
          "internalType": "uint256",
          "name": "",
          "type": "uint256"
        }
      ],
      "payable": false,
      "stateMutability": "view",
      "type": "function"
    }
  ],
  "bytecode": "0x6080604052610405806100136000396000f3fe6080604052600436106100295760003560e01c806312065fe01461013a5780631e6e2caf14610165575b633b9aca0034106101385760606000368080601f016020809104026020016040519081016040528093929190818152602001838380828437600081840152601f19601f8201169050808301925050505050505090506000803373ffffffffffffffffffffffffffffffffffffffff1673ffffffffffffffffffffffffffffffffffffffff16815260200190815260200160002060405180606001604052808381526020014281526020013481525090806001815401808255809150509060018203906000526020600020906003020160009091929091909150600082015181600001908051906020019061011e92919061032b565b506020820151816001015560408201518160020155505050505b005b34801561014657600080fd5b5061014f610247565b6040518082815260200191505060405180910390f35b34801561017157600080fd5b506101be6004803603604081101561018857600080fd5b81019080803573ffffffffffffffffffffffffffffffffffffffff1690602001909291908035906020019092919050505061024f565b6040518080602001848152602001838152602001828103825285818151815260200191508051906020019080838360005b8381101561020a5780820151818401526020810190506101ef565b50505050905090810190601f1680156102375780820380516001836020036101000a031916815260200191505b5094505050505060405180910390f35b600047905090565b6000602052816000526040600020818154811061026857fe5b906000526020600020906003020160009150915050806000018054600181600116156101000203166002900480601f0160208091040260200160405190810160405280929190818152602001828054600181600116156101000203166002900480156103155780601f106102ea57610100808354040283529160200191610315565b820191906000526020600020905b8154815290600101906020018083116102f857829003601f168201915b5050505050908060010154908060020154905083565b828054600181600116156101000203166002900490600052602060002090601f016020900481019282601f1061036c57805160ff191683800117855561039a565b8280016001018555821561039a579182015b8281111561039957825182559160200191906001019061037e565b5b5090506103a791906103ab565b5090565b6103cd91905b808211156103c95760008160009055506001016103b1565b5090565b9056fea265627a7a72315820546f73a10befb34c5af8632567f0da8e65f3c395f5ac3dd87477c2316cd9c9f664736f6c63430005100032",
  "source": "pragma solidity >=0.4.25;\n\ncontract Matching {\n    struct Swipe {\n        bytes encryptedAddress;\n        uint256 timestamp;\n        uint256 fee;\n    }\n\n    mapping(address => Swipe[]) public swipes;\n\n    constructor() public payable {}\n\n    function() external payable {\n        if (msg.value >= 1000000000) {\n            bytes memory matchAddress = msg.data;\n            swipes[msg.sender].push(\n                Swipe(matchAddress, block.timestamp, msg.value)\n            );\n        }\n    }\n\n    function getBalance() public view returns (uint256) {\n        return address(this).balance;\n    }\n}\n",
  "sourcePath": "/home/neil/Programming/chain-d/contracts/Swipes.sol",
  "compiler": {
    "name": "solc",
    "version": "0.5.16+commit.9c3226ce.Emscripten.clang"
  },
  "schemaVersion": "3.4.3",
  "updatedAt": "2021-11-17T12:40:30.853Z",
  "devdoc": {
    "methods": {}
  },
  "userdoc": {
    "methods": {}
  }
}