{
  "contractName": "MetaCoin",
  "abi": [
    {
      "inputs": [],
      "payable": false,
      "stateMutability": "nonpayable",
      "type": "constructor"
    },
    {
      "constant": false,
      "inputs": [
        {
          "internalType": "string",
          "name": "firstName",
          "type": "string"
        },
        {
          "internalType": "string",
          "name": "location",
          "type": "string"
        },
        {
          "internalType": "uint256",
          "name": "birthdayYear",
          "type": "uint256"
        },
        {
          "internalType": "string",
          "name": "gender",
          "type": "string"
        },
        {
          "internalType": "string",
          "name": "orientation",
          "type": "string"
        },
        {
          "internalType": "string",
          "name": "school",
          "type": "string"
        },
        {
          "internalType": "string",
          "name": "bio",
          "type": "string"
        },
        {
          "internalType": "string",
          "name": "interests",
          "type": "string"
        },
        {
          "internalType": "string",
          "name": "photos",
          "type": "string"
        }
      ],
      "name": "createProfile",
      "outputs": [],
      "payable": false,
      "stateMutability": "nonpayable",
      "type": "function"
    }
  ],
  "bytecode": "0x608060405234801561001057600080fd5b50610770806100206000396000f3fe608060405234801561001057600080fd5b506004361061002b5760003560e01c806313a97e2014610030575b600080fd5b610515600480360361012081101561004757600080fd5b810190808035906020019064010000000081111561006457600080fd5b82018360208201111561007657600080fd5b8035906020019184600183028401116401000000008311171561009857600080fd5b91908080601f016020809104026020016040519081016040528093929190818152602001838380828437600081840152601f19601f820116905080830192505050505050509192919290803590602001906401000000008111156100fb57600080fd5b82018360208201111561010d57600080fd5b8035906020019184600183028401116401000000008311171561012f57600080fd5b91908080601f016020809104026020016040519081016040528093929190818152602001838380828437600081840152601f19601f820116905080830192505050505050509192919290803590602001909291908035906020019064010000000081111561019c57600080fd5b8201836020820111156101ae57600080fd5b803590602001918460018302840111640100000000831117156101d057600080fd5b91908080601f016020809104026020016040519081016040528093929190818152602001838380828437600081840152601f19601f8201169050808301925050505050505091929192908035906020019064010000000081111561023357600080fd5b82018360208201111561024557600080fd5b8035906020019184600183028401116401000000008311171561026757600080fd5b91908080601f016020809104026020016040519081016040528093929190818152602001838380828437600081840152601f19601f820116905080830192505050505050509192919290803590602001906401000000008111156102ca57600080fd5b8201836020820111156102dc57600080fd5b803590602001918460018302840111640100000000831117156102fe57600080fd5b91908080601f016020809104026020016040519081016040528093929190818152602001838380828437600081840152601f19601f8201169050808301925050505050505091929192908035906020019064010000000081111561036157600080fd5b82018360208201111561037357600080fd5b8035906020019184600183028401116401000000008311171561039557600080fd5b91908080601f016020809104026020016040519081016040528093929190818152602001838380828437600081840152601f19601f820116905080830192505050505050509192919290803590602001906401000000008111156103f857600080fd5b82018360208201111561040a57600080fd5b8035906020019184600183028401116401000000008311171561042c57600080fd5b91908080601f016020809104026020016040519081016040528093929190818152602001838380828437600081840152601f19601f8201169050808301925050505050505091929192908035906020019064010000000081111561048f57600080fd5b8201836020820111156104a157600080fd5b803590602001918460018302840111640100000000831117156104c357600080fd5b91908080601f016020809104026020016040519081016040528093929190818152602001838380828437600081840152601f19601f820116905080830192505050505050509192919290505050610517565b005b6040518061012001604052808a8152602001898152602001888152602001878152602001868152602001858152602001848152602001838152602001828152506000803373ffffffffffffffffffffffffffffffffffffffff1673ffffffffffffffffffffffffffffffffffffffff16815260200190815260200160002060008201518160000190805190602001906105b1929190610696565b5060208201518160010190805190602001906105ce929190610696565b506040820151816002015560608201518160030190805190602001906105f5929190610696565b506080820151816004019080519060200190610612929190610696565b5060a082015181600501908051906020019061062f929190610696565b5060c082015181600601908051906020019061064c929190610696565b5060e0820151816007019080519060200190610669929190610696565b50610100820151816008019080519060200190610687929190610696565b50905050505050505050505050565b828054600181600116156101000203166002900490600052602060002090601f016020900481019282601f106106d757805160ff1916838001178555610705565b82800160010185558215610705579182015b828111156107045782518255916020019190600101906106e9565b5b5090506107129190610716565b5090565b61073891905b8082111561073457600081600090555060010161071c565b5090565b9056fea265627a7a723158203778c614b69c7ae8f00aad9886dc185af393f00e7c141b55c187390a44e5afa664736f6c63430005100032",
  "source": "// SPDX-License-Identifier: MIT\npragma solidity >=0.4.25 <0.7.0;\n\nimport \"./ConvertLib.sol\";\n\n// This is just a simple example of a coin-like contract.\n// It is not standards compatible and cannot be expected to talk to other\n// coin/token contracts. If you want to create a standards-compliant\n// token, see: https://github.com/ConsenSys/Tokens. Cheers!\n\ncontract MetaCoin {\n    struct Profile {\n        string firstName;\n        string location;\n        uint256 birthdayYear;\n        string gender;\n        string orientation;\n        string school;\n        string bio;\n        string interests;\n        string photos;\n    }\n\n    mapping(address => Profile) profiles;\n\n    // event Transfer(address indexed _from, address indexed _to, uint256 _value);\n\n    constructor() public {\n        // balances[tx.origin] = 30000;\n    }\n\n    function createProfile(\n        string memory firstName,\n        string memory location,\n        uint256 birthdayYear,\n        string memory gender,\n        string memory orientation,\n        string memory school,\n        string memory bio,\n        string memory interests,\n        string memory photos\n    ) public {\n        profiles[msg.sender] = Profile(\n            firstName,\n            location,\n            birthdayYear,\n            gender,\n            orientation,\n            school,\n            bio,\n            interests,\n            photos\n        );\n    }\n\n    // function sendCoin(address receiver, uint256 amount)\n    //     public\n    //     returns (bool sufficient)\n    // {\n    //     if (balances[msg.sender] < amount) return false;\n    //     balances[msg.sender] -= amount;\n    //     balances[receiver] += amount;\n    //     emit Transfer(msg.sender, receiver, amount);\n    //     return true;\n    // }\n\n    // function getBalanceInEth(address addr) public view returns (uint256) {\n    //     return ConvertLib.convert(getBalance(addr), 2);\n    // }\n\n    // function getBalance(address addr) public view returns (uint256) {\n    //     return balances[addr];\n    // }\n}\n",
  "sourcePath": "/home/neil/Programming/chain-d/contracts/MetaCoin.sol",
  "compiler": {
    "name": "solc",
    "version": "0.5.16+commit.9c3226ce.Emscripten.clang"
  },
  "schemaVersion": "3.4.3",
  "updatedAt": "2021-11-08T14:38:17.598Z",
  "devdoc": {
    "methods": {}
  },
  "userdoc": {
    "methods": {}
  }
}