{
  "contractName": "Profiles",
  "abi": [
    {
      "inputs": [],
      "payable": false,
      "stateMutability": "nonpayable",
      "type": "constructor"
    },
    {
      "constant": true,
      "inputs": [
        {
          "internalType": "uint256",
          "name": "",
          "type": "uint256"
        }
      ],
      "name": "datingAccounts",
      "outputs": [
        {
          "internalType": "address",
          "name": "",
          "type": "address"
        }
      ],
      "payable": false,
      "stateMutability": "view",
      "type": "function"
    },
    {
      "constant": true,
      "inputs": [
        {
          "internalType": "uint256",
          "name": "",
          "type": "uint256"
        }
      ],
      "name": "matches",
      "outputs": [
        {
          "internalType": "address",
          "name": "",
          "type": "address"
        }
      ],
      "payable": false,
      "stateMutability": "view",
      "type": "function"
    },
    {
      "constant": true,
      "inputs": [
        {
          "internalType": "address",
          "name": "",
          "type": "address"
        }
      ],
      "name": "profiles",
      "outputs": [
        {
          "internalType": "address",
          "name": "addr",
          "type": "address"
        },
        {
          "internalType": "string",
          "name": "firstName",
          "type": "string"
        },
        {
          "internalType": "string",
          "name": "location",
          "type": "string"
        },
        {
          "internalType": "uint256",
          "name": "birthdayYear",
          "type": "uint256"
        },
        {
          "internalType": "string",
          "name": "gender",
          "type": "string"
        },
        {
          "internalType": "string",
          "name": "orientation",
          "type": "string"
        }
      ],
      "payable": false,
      "stateMutability": "view",
      "type": "function"
    },
    {
      "constant": false,
      "inputs": [
        {
          "internalType": "string",
          "name": "firstName",
          "type": "string"
        },
        {
          "internalType": "string",
          "name": "location",
          "type": "string"
        },
        {
          "internalType": "uint256",
          "name": "birthdayYear",
          "type": "uint256"
        },
        {
          "internalType": "string",
          "name": "gender",
          "type": "string"
        },
        {
          "internalType": "string",
          "name": "orientation",
          "type": "string"
        }
      ],
      "name": "createProfile",
      "outputs": [],
      "payable": false,
      "stateMutability": "nonpayable",
      "type": "function"
    },
    {
      "constant": true,
      "inputs": [],
      "name": "getAccounts",
      "outputs": [
        {
          "internalType": "address[]",
          "name": "",
          "type": "address[]"
        }
      ],
      "payable": false,
      "stateMutability": "view",
      "type": "function"
    },
    {
      "constant": true,
      "inputs": [
        {
          "internalType": "address",
          "name": "acct",
          "type": "address"
        }
      ],
      "name": "getAccount",
      "outputs": [
        {
          "internalType": "string",
          "name": "",
          "type": "string"
        },
        {
          "internalType": "string",
          "name": "",
          "type": "string"
        },
        {
          "internalType": "uint256",
          "name": "",
          "type": "uint256"
        },
        {
          "internalType": "string",
          "name": "",
          "type": "string"
        },
        {
          "internalType": "string",
          "name": "",
          "type": "string"
        }
      ],
      "payable": false,
      "stateMutability": "view",
      "type": "function"
    },
    {
      "constant": true,
      "inputs": [
        {
          "internalType": "uint256",
          "name": "age",
          "type": "uint256"
        },
        {
          "internalType": "string",
          "name": "gender",
          "type": "string"
        },
        {
          "internalType": "string",
          "name": "orientation",
          "type": "string"
        }
      ],
      "name": "makeMatches",
      "outputs": [
        {
          "internalType": "address[]",
          "name": "",
          "type": "address[]"
        }
      ],
      "payable": false,
      "stateMutability": "view",
      "type": "function"
    },
    {
      "constant": true,
      "inputs": [
        {
          "internalType": "address",
          "name": "addr",
          "type": "address"
        }
      ],
      "name": "getName",
      "outputs": [
        {
          "internalType": "string",
          "name": "",
          "type": "string"
        }
      ],
      "payable": false,
      "stateMutability": "view",
      "type": "function"
    },
    {
      "constant": true,
      "inputs": [
        {
          "internalType": "uint256",
          "name": "index",
          "type": "uint256"
        }
      ],
      "name": "getName",
      "outputs": [
        {
          "internalType": "string",
          "name": "",
          "type": "string"
        }
      ],
      "payable": false,
      "stateMutability": "view",
      "type": "function"
    },
    {
      "constant": true,
      "inputs": [
        {
          "internalType": "uint256",
          "name": "index",
          "type": "uint256"
        }
      ],
      "name": "getLocation",
      "outputs": [
        {
          "internalType": "string",
          "name": "",
          "type": "string"
        }
      ],
      "payable": false,
      "stateMutability": "view",
      "type": "function"
    },
    {
      "constant": true,
      "inputs": [
        {
          "internalType": "address",
          "name": "addr",
          "type": "address"
        }
      ],
      "name": "getLocation",
      "outputs": [
        {
          "internalType": "string",
          "name": "",
          "type": "string"
        }
      ],
      "payable": false,
      "stateMutability": "view",
      "type": "function"
    },
    {
      "constant": true,
      "inputs": [
        {
          "internalType": "uint256",
          "name": "index",
          "type": "uint256"
        }
      ],
      "name": "getAge",
      "outputs": [
        {
          "internalType": "uint256",
          "name": "",
          "type": "uint256"
        }
      ],
      "payable": false,
      "stateMutability": "view",
      "type": "function"
    },
    {
      "constant": true,
      "inputs": [
        {
          "internalType": "address",
          "name": "addr",
          "type": "address"
        }
      ],
      "name": "getAge",
      "outputs": [
        {
          "internalType": "uint256",
          "name": "",
          "type": "uint256"
        }
      ],
      "payable": false,
      "stateMutability": "view",
      "type": "function"
    },
    {
      "constant": true,
      "inputs": [
        {
          "internalType": "address",
          "name": "addr",
          "type": "address"
        }
      ],
      "name": "getGender",
      "outputs": [
        {
          "internalType": "string",
          "name": "",
          "type": "string"
        }
      ],
      "payable": false,
      "stateMutability": "view",
      "type": "function"
    },
    {
      "constant": true,
      "inputs": [
        {
          "internalType": "uint256",
          "name": "index",
          "type": "uint256"
        }
      ],
      "name": "getGender",
      "outputs": [
        {
          "internalType": "string",
          "name": "",
          "type": "string"
        }
      ],
      "payable": false,
      "stateMutability": "view",
      "type": "function"
    },
    {
      "constant": true,
      "inputs": [
        {
          "internalType": "uint256",
          "name": "index",
          "type": "uint256"
        }
      ],
      "name": "getOrientation",
      "outputs": [
        {
          "internalType": "string",
          "name": "",
          "type": "string"
        }
      ],
      "payable": false,
      "stateMutability": "view",
      "type": "function"
    },
    {
      "constant": true,
      "inputs": [
        {
          "internalType": "address",
          "name": "addr",
          "type": "address"
        }
      ],
      "name": "getOrientation",
      "outputs": [
        {
          "internalType": "string",
          "name": "",
          "type": "string"
        }
      ],
      "payable": false,
      "stateMutability": "view",
      "type": "function"
    },
    {
      "constant": true,
      "inputs": [
        {
          "internalType": "string",
          "name": "a",
          "type": "string"
        },
        {
          "internalType": "string",
          "name": "b",
          "type": "string"
        }
      ],
      "name": "compareStrings",
      "outputs": [
        {
          "internalType": "bool",
          "name": "",
          "type": "bool"
        }
      ],
      "payable": false,
      "stateMutability": "pure",
      "type": "function"
    }
  ],
  "bytecode": "0x608060405234801561001057600080fd5b5061285c806100206000396000f3fe608060405234801561001057600080fd5b50600436106101165760003560e01c80637f7b1393116100a2578063c394134211610071578063c394134214610d82578063ca8851d814610e3f578063d9e0dc5914610efc578063e06d2eb514610fb9578063fbcbc0f11461106057610116565b80637f7b1393146108d75780638a48ac031461097e578063bbe15627146109dd578063bed34bba14610c1857610116565b80635fd4b08a116100e95780635fd4b08a146104ad57806368778ff71461056a5780636b8ff5741461071b57806371692b7f146107c2578063775f0e4f1461086957610116565b80630acfb4d91461011b5780630e37008a146103a557806338451598146103e75780634768d4ef1461043f575b600080fd5b6103a3600480360360a081101561013157600080fd5b810190808035906020019064010000000081111561014e57600080fd5b82018360208201111561016057600080fd5b8035906020019184600183028401116401000000008311171561018257600080fd5b91908080601f016020809104026020016040519081016040528093929190818152602001838380828437600081840152601f19601f820116905080830192505050505050509192919290803590602001906401000000008111156101e557600080fd5b8201836020820111156101f757600080fd5b8035906020019184600183028401116401000000008311171561021957600080fd5b91908080601f016020809104026020016040519081016040528093929190818152602001838380828437600081840152601f19601f820116905080830192505050505050509192919290803590602001909291908035906020019064010000000081111561028657600080fd5b82018360208201111561029857600080fd5b803590602001918460018302840111640100000000831117156102ba57600080fd5b91908080601f016020809104026020016040519081016040528093929190818152602001838380828437600081840152601f19601f8201169050808301925050505050505091929192908035906020019064010000000081111561031d57600080fd5b82018360208201111561032f57600080fd5b8035906020019184600183028401116401000000008311171561035157600080fd5b91908080601f016020809104026020016040519081016040528093929190818152602001838380828437600081840152601f19601f820116905080830192505050505050509192919290505050611268565b005b6103d1600480360360208110156103bb57600080fd5b810190808035906020019092919050505061142f565b6040518082815260200191505060405180910390f35b610429600480360360208110156103fd57600080fd5b81019080803573ffffffffffffffffffffffffffffffffffffffff1690602001909291905050506114ba565b6040518082815260200191505060405180910390f35b61046b6004803603602081101561045557600080fd5b810190808035906020019092919050505061150f565b604051808273ffffffffffffffffffffffffffffffffffffffff1673ffffffffffffffffffffffffffffffffffffffff16815260200191505060405180910390f35b6104ef600480360360208110156104c357600080fd5b81019080803573ffffffffffffffffffffffffffffffffffffffff16906020019092919050505061154b565b6040518080602001828103825283818151815260200191508051906020019080838360005b8381101561052f578082015181840152602081019050610514565b50505050905090810190601f16801561055c5780820380516001836020036101000a031916815260200191505b509250505060405180910390f35b6106c46004803603606081101561058057600080fd5b8101908080359060200190929190803590602001906401000000008111156105a757600080fd5b8201836020820111156105b957600080fd5b803590602001918460018302840111640100000000831117156105db57600080fd5b91908080601f016020809104026020016040519081016040528093929190818152602001838380828437600081840152601f19601f8201169050808301925050505050505091929192908035906020019064010000000081111561063e57600080fd5b82018360208201111561065057600080fd5b8035906020019184600183028401116401000000008311171561067257600080fd5b91908080601f016020809104026020016040519081016040528093929190818152602001838380828437600081840152601f19601f82011690508083019250505050505050919291929050505061162f565b6040518080602001828103825283818151815260200191508051906020019060200280838360005b838110156107075780820151818401526020810190506106ec565b505050509050019250505060405180910390f35b6107476004803603602081101561073157600080fd5b81019080803590602001909291905050506117d7565b6040518080602001828103825283818151815260200191508051906020019080838360005b8381101561078757808201518184015260208101905061076c565b50505050905090810190601f1680156107b45780820380516001836020036101000a031916815260200191505b509250505060405180910390f35b6107ee600480360360208110156107d857600080fd5b81019080803590602001909291905050506118f1565b6040518080602001828103825283818151815260200191508051906020019080838360005b8381101561082e578082015181840152602081019050610813565b50505050905090810190601f16801561085b5780820380516001836020036101000a031916815260200191505b509250505060405180910390f35b6108956004803603602081101561087f57600080fd5b8101908080359060200190929190505050611a0b565b604051808273ffffffffffffffffffffffffffffffffffffffff1673ffffffffffffffffffffffffffffffffffffffff16815260200191505060405180910390f35b610903600480360360208110156108ed57600080fd5b8101908080359060200190929190505050611a47565b6040518080602001828103825283818151815260200191508051906020019080838360005b83811015610943578082015181840152602081019050610928565b50505050905090810190601f1680156109705780820380516001836020036101000a031916815260200191505b509250505060405180910390f35b610986611b61565b6040518080602001828103825283818151815260200191508051906020019060200280838360005b838110156109c95780820151818401526020810190506109ae565b505050509050019250505060405180910390f35b610a1f600480360360208110156109f357600080fd5b81019080803573ffffffffffffffffffffffffffffffffffffffff169060200190929190505050611bef565b604051808773ffffffffffffffffffffffffffffffffffffffff1673ffffffffffffffffffffffffffffffffffffffff1681526020018060200180602001868152602001806020018060200185810385528a818151815260200191508051906020019080838360005b83811015610aa3578082015181840152602081019050610a88565b50505050905090810190601f168015610ad05780820380516001836020036101000a031916815260200191505b50858103845289818151815260200191508051906020019080838360005b83811015610b09578082015181840152602081019050610aee565b50505050905090810190601f168015610b365780820380516001836020036101000a031916815260200191505b50858103835287818151815260200191508051906020019080838360005b83811015610b6f578082015181840152602081019050610b54565b50505050905090810190601f168015610b9c5780820380516001836020036101000a031916815260200191505b50858103825286818151815260200191508051906020019080838360005b83811015610bd5578082015181840152602081019050610bba565b50505050905090810190601f168015610c025780820380516001836020036101000a031916815260200191505b509a505050505050505050505060405180910390f35b610d6860048036036040811015610c2e57600080fd5b8101908080359060200190640100000000811115610c4b57600080fd5b820183602082011115610c5d57600080fd5b80359060200191846001830284011164010000000083111715610c7f57600080fd5b91908080601f016020809104026020016040519081016040528093929190818152602001838380828437600081840152601f19601f82011690508083019250505050505050919291929080359060200190640100000000811115610ce257600080fd5b820183602082011115610cf457600080fd5b80359060200191846001830284011164010000000083111715610d1657600080fd5b91908080601f016020809104026020016040519081016040528093929190818152602001838380828437600081840152601f19601f820116905080830192505050505050509192919290505050611eab565b604051808215151515815260200191505060405180910390f35b610dc460048036036020811015610d9857600080fd5b81019080803573ffffffffffffffffffffffffffffffffffffffff169060200190929190505050611f9a565b6040518080602001828103825283818151815260200191508051906020019080838360005b83811015610e04578082015181840152602081019050610de9565b50505050905090810190601f168015610e315780820380516001836020036101000a031916815260200191505b509250505060405180910390f35b610e8160048036036020811015610e5557600080fd5b81019080803573ffffffffffffffffffffffffffffffffffffffff16906020019092919050505061207e565b6040518080602001828103825283818151815260200191508051906020019080838360005b83811015610ec1578082015181840152602081019050610ea6565b50505050905090810190601f168015610eee5780820380516001836020036101000a031916815260200191505b509250505060405180910390f35b610f3e60048036036020811015610f1257600080fd5b81019080803573ffffffffffffffffffffffffffffffffffffffff169060200190929190505050612162565b6040518080602001828103825283818151815260200191508051906020019080838360005b83811015610f7e578082015181840152602081019050610f63565b50505050905090810190601f168015610fab5780820380516001836020036101000a031916815260200191505b509250505060405180910390f35b610fe560048036036020811015610fcf57600080fd5b8101908080359060200190929190505050612246565b6040518080602001828103825283818151815260200191508051906020019080838360005b8381101561102557808201518184015260208101905061100a565b50505050905090810190601f1680156110525780820380516001836020036101000a031916815260200191505b509250505060405180910390f35b6110a26004803603602081101561107657600080fd5b81019080803573ffffffffffffffffffffffffffffffffffffffff169060200190929190505050612360565b604051808060200180602001868152602001806020018060200185810385528a818151815260200191508051906020019080838360005b838110156110f45780820151818401526020810190506110d9565b50505050905090810190601f1680156111215780820380516001836020036101000a031916815260200191505b50858103845289818151815260200191508051906020019080838360005b8381101561115a57808201518184015260208101905061113f565b50505050905090810190601f1680156111875780820380516001836020036101000a031916815260200191505b50858103835287818151815260200191508051906020019080838360005b838110156111c05780820151818401526020810190506111a5565b50505050905090810190601f1680156111ed5780820380516001836020036101000a031916815260200191505b50858103825286818151815260200191508051906020019080838360005b8381101561122657808201518184015260208101905061120b565b50505050905090810190601f1680156112535780820380516001836020036101000a031916815260200191505b50995050505050505050505060405180910390f35b611270612736565b6040518060c001604052803373ffffffffffffffffffffffffffffffffffffffff16815260200187815260200186815260200185815260200184815260200183815250905080600260003373ffffffffffffffffffffffffffffffffffffffff1673ffffffffffffffffffffffffffffffffffffffff16815260200190815260200160002060008201518160000160006101000a81548173ffffffffffffffffffffffffffffffffffffffff021916908373ffffffffffffffffffffffffffffffffffffffff1602179055506020820151816001019080519060200190611358929190612782565b506040820151816002019080519060200190611375929190612782565b5060608201518160030155608082015181600401908051906020019061139c929190612782565b5060a08201518160050190805190602001906113b9929190612782565b509050506000816000015190806001815401808255809150509060018203906000526020600020016000909192909190916101000a81548173ffffffffffffffffffffffffffffffffffffffff021916908373ffffffffffffffffffffffffffffffffffffffff16021790555050505050505050565b6000806002600080858154811061144257fe5b9060005260206000200160009054906101000a900473ffffffffffffffffffffffffffffffffffffffff1673ffffffffffffffffffffffffffffffffffffffff1673ffffffffffffffffffffffffffffffffffffffff168152602001908152602001600020600301546107e503905080915050919050565b600080600260008473ffffffffffffffffffffffffffffffffffffffff1673ffffffffffffffffffffffffffffffffffffffff168152602001908152602001600020600301546107e503905080915050919050565b6001818154811061151c57fe5b906000526020600020016000915054906101000a900473ffffffffffffffffffffffffffffffffffffffff1681565b6060600260008373ffffffffffffffffffffffffffffffffffffffff1673ffffffffffffffffffffffffffffffffffffffff1681526020019081526020016000206001018054600181600116156101000203166002900480601f0160208091040260200160405190810160405280929190818152602001828054600181600116156101000203166002900480156116235780601f106115f857610100808354040283529160200191611623565b820191906000526020600020905b81548152906001019060200180831161160657829003601f168201915b50505050509050919050565b606080600080905060008090505b6001600080549050038110156117ca578661168e6000838154811061165e57fe5b9060005260206000200160009054906101000a900473ffffffffffffffffffffffffffffffffffffffff166114ba565b1480156116e057506116df6116d9600083815481106116a957fe5b9060005260206000200160009054906101000a900473ffffffffffffffffffffffffffffffffffffffff1661207e565b87611eab565b5b8015611731575061173061172a600083815481106116fa57fe5b9060005260206000200160009054906101000a900473ffffffffffffffffffffffffffffffffffffffff16611f9a565b86611eab565b5b156117bd576000818154811061174357fe5b9060005260206000200160009054906101000a900473ffffffffffffffffffffffffffffffffffffffff1683838151811061177a57fe5b602002602001019073ffffffffffffffffffffffffffffffffffffffff16908173ffffffffffffffffffffffffffffffffffffffff168152505081806001019250505b808060010191505061163d565b5081925050509392505050565b6060600260008084815481106117e957fe5b9060005260206000200160009054906101000a900473ffffffffffffffffffffffffffffffffffffffff1673ffffffffffffffffffffffffffffffffffffffff1673ffffffffffffffffffffffffffffffffffffffff1681526020019081526020016000206001018054600181600116156101000203166002900480601f0160208091040260200160405190810160405280929190818152602001828054600181600116156101000203166002900480156118e55780601f106118ba576101008083540402835291602001916118e5565b820191906000526020600020905b8154815290600101906020018083116118c857829003601f168201915b50505050509050919050565b60606002600080848154811061190357fe5b9060005260206000200160009054906101000a900473ffffffffffffffffffffffffffffffffffffffff1673ffffffffffffffffffffffffffffffffffffffff1673ffffffffffffffffffffffffffffffffffffffff1681526020019081526020016000206005018054600181600116156101000203166002900480601f0160208091040260200160405190810160405280929190818152602001828054600181600116156101000203166002900480156119ff5780601f106119d4576101008083540402835291602001916119ff565b820191906000526020600020905b8154815290600101906020018083116119e257829003601f168201915b50505050509050919050565b60008181548110611a1857fe5b906000526020600020016000915054906101000a900473ffffffffffffffffffffffffffffffffffffffff1681565b606060026000808481548110611a5957fe5b9060005260206000200160009054906101000a900473ffffffffffffffffffffffffffffffffffffffff1673ffffffffffffffffffffffffffffffffffffffff1673ffffffffffffffffffffffffffffffffffffffff1681526020019081526020016000206002018054600181600116156101000203166002900480601f016020809104026020016040519081016040528092919081815260200182805460018160011615610100020316600290048015611b555780601f10611b2a57610100808354040283529160200191611b55565b820191906000526020600020905b815481529060010190602001808311611b3857829003601f168201915b50505050509050919050565b60606000805480602002602001604051908101604052809291908181526020018280548015611be557602002820191906000526020600020905b8160009054906101000a900473ffffffffffffffffffffffffffffffffffffffff1673ffffffffffffffffffffffffffffffffffffffff1681526020019060010190808311611b9b575b5050505050905090565b60026020528060005260406000206000915090508060000160009054906101000a900473ffffffffffffffffffffffffffffffffffffffff1690806001018054600181600116156101000203166002900480601f016020809104026020016040519081016040528092919081815260200182805460018160011615610100020316600290048015611cc15780601f10611c9657610100808354040283529160200191611cc1565b820191906000526020600020905b815481529060010190602001808311611ca457829003601f168201915b505050505090806002018054600181600116156101000203166002900480601f016020809104026020016040519081016040528092919081815260200182805460018160011615610100020316600290048015611d5f5780601f10611d3457610100808354040283529160200191611d5f565b820191906000526020600020905b815481529060010190602001808311611d4257829003601f168201915b505050505090806003015490806004018054600181600116156101000203166002900480601f016020809104026020016040519081016040528092919081815260200182805460018160011615610100020316600290048015611e035780601f10611dd857610100808354040283529160200191611e03565b820191906000526020600020905b815481529060010190602001808311611de657829003601f168201915b505050505090806005018054600181600116156101000203166002900480601f016020809104026020016040519081016040528092919081815260200182805460018160011615610100020316600290048015611ea15780601f10611e7657610100808354040283529160200191611ea1565b820191906000526020600020905b815481529060010190602001808311611e8457829003601f168201915b5050505050905086565b6000816040516020018082805190602001908083835b60208310611ee45780518252602082019150602081019050602083039250611ec1565b6001836020036101000a03801982511681845116808217855250505050505090500191505060405160208183030381529060405280519060200120836040516020018082805190602001908083835b60208310611f565780518252602082019150602081019050602083039250611f33565b6001836020036101000a0380198251168184511680821785525050505050509050019150506040516020818303038152906040528051906020012014905092915050565b6060600260008373ffffffffffffffffffffffffffffffffffffffff1673ffffffffffffffffffffffffffffffffffffffff1681526020019081526020016000206005018054600181600116156101000203166002900480601f0160208091040260200160405190810160405280929190818152602001828054600181600116156101000203166002900480156120725780601f1061204757610100808354040283529160200191612072565b820191906000526020600020905b81548152906001019060200180831161205557829003601f168201915b50505050509050919050565b6060600260008373ffffffffffffffffffffffffffffffffffffffff1673ffffffffffffffffffffffffffffffffffffffff1681526020019081526020016000206004018054600181600116156101000203166002900480601f0160208091040260200160405190810160405280929190818152602001828054600181600116156101000203166002900480156121565780601f1061212b57610100808354040283529160200191612156565b820191906000526020600020905b81548152906001019060200180831161213957829003601f168201915b50505050509050919050565b6060600260008373ffffffffffffffffffffffffffffffffffffffff1673ffffffffffffffffffffffffffffffffffffffff1681526020019081526020016000206002018054600181600116156101000203166002900480601f01602080910402602001604051908101604052809291908181526020018280546001816001161561010002031660029004801561223a5780601f1061220f5761010080835404028352916020019161223a565b820191906000526020600020905b81548152906001019060200180831161221d57829003601f168201915b50505050509050919050565b60606002600080848154811061225857fe5b9060005260206000200160009054906101000a900473ffffffffffffffffffffffffffffffffffffffff1673ffffffffffffffffffffffffffffffffffffffff1673ffffffffffffffffffffffffffffffffffffffff1681526020019081526020016000206004018054600181600116156101000203166002900480601f0160208091040260200160405190810160405280929190818152602001828054600181600116156101000203166002900480156123545780601f1061232957610100808354040283529160200191612354565b820191906000526020600020905b81548152906001019060200180831161233757829003601f168201915b50505050509050919050565b6060806000606080600260008773ffffffffffffffffffffffffffffffffffffffff1673ffffffffffffffffffffffffffffffffffffffff168152602001908152602001600020600101600260008873ffffffffffffffffffffffffffffffffffffffff1673ffffffffffffffffffffffffffffffffffffffff168152602001908152602001600020600201600260008973ffffffffffffffffffffffffffffffffffffffff1673ffffffffffffffffffffffffffffffffffffffff16815260200190815260200160002060030154600260008a73ffffffffffffffffffffffffffffffffffffffff1673ffffffffffffffffffffffffffffffffffffffff168152602001908152602001600020600401600260008b73ffffffffffffffffffffffffffffffffffffffff1673ffffffffffffffffffffffffffffffffffffffff168152602001908152602001600020600501848054600181600116156101000203166002900480601f0160208091040260200160405190810160405280929190818152602001828054600181600116156101000203166002900480156125485780601f1061251d57610100808354040283529160200191612548565b820191906000526020600020905b81548152906001019060200180831161252b57829003601f168201915b50505050509450838054600181600116156101000203166002900480601f0160208091040260200160405190810160405280929190818152602001828054600181600116156101000203166002900480156125e45780601f106125b9576101008083540402835291602001916125e4565b820191906000526020600020905b8154815290600101906020018083116125c757829003601f168201915b50505050509350818054600181600116156101000203166002900480601f0160208091040260200160405190810160405280929190818152602001828054600181600116156101000203166002900480156126805780601f1061265557610100808354040283529160200191612680565b820191906000526020600020905b81548152906001019060200180831161266357829003601f168201915b50505050509150808054600181600116156101000203166002900480601f01602080910402602001604051908101604052809291908181526020018280546001816001161561010002031660029004801561271c5780601f106126f15761010080835404028352916020019161271c565b820191906000526020600020905b8154815290600101906020018083116126ff57829003601f168201915b505050505090509450945094509450945091939590929450565b6040518060c00160405280600073ffffffffffffffffffffffffffffffffffffffff16815260200160608152602001606081526020016000815260200160608152602001606081525090565b828054600181600116156101000203166002900490600052602060002090601f016020900481019282601f106127c357805160ff19168380011785556127f1565b828001600101855582156127f1579182015b828111156127f05782518255916020019190600101906127d5565b5b5090506127fe9190612802565b5090565b61282491905b80821115612820576000816000905550600101612808565b5090565b9056fea265627a7a72315820799bf0e59040d247ae37d12a555b33e617d3b27610a777e4cf88a6cc2cd7cfcc64736f6c63430005100032",
  "source": "// SPDX-License-Identifier: MIT\npragma solidity >=0.4.25;\n\nimport \"./ConvertLib.sol\";\n\n\n\n// This is just a simple example of a coin-like contract.\n// It is not standards compatible and cannot be expected to talk to other\n// coin/token contracts. If you want to create a standards-compliant\n// token, see: https://github.com/ConsenSys/Tokens. Cheers!\n\ncontract Profiles {\n    struct Profile {\n        address addr;\n        string firstName;\n        string location;\n        uint256 birthdayYear;\n        string gender;\n        string orientation;\n    }\n    \n    address[] public datingAccounts;\n    address[] public matches;\n\n\n    mapping(address => Profile) public profiles;\n\n    constructor() public {}\n\n    function createProfile(\n        string memory firstName,\n        string memory location,\n        uint256 birthdayYear,\n        string memory gender,\n        string memory orientation\n\n    ) public {\n        Profile memory account = Profile(msg.sender, firstName, location, birthdayYear, gender, orientation);\n        profiles[msg.sender] = account;\n        datingAccounts.push(account.addr);\n    }\n\n    function getAccounts() public view returns (address[] memory){\n        return datingAccounts;\n    }\n\n    function getAccount(address acct) public view returns (string memory, string memory, uint256, string memory, string memory){\n        return (profiles[acct].firstName, profiles[acct].location, profiles[acct].birthdayYear, profiles[acct].gender, profiles[acct].orientation);\n    }\n\n    function makeMatches(uint256 age, string memory gender, string memory orientation) public view returns(address[] memory){\n        address[] memory mtchs;\n        uint index = 0;\n        for(uint i = 0; i < datingAccounts.length-1;i++){\n            if(getAge(datingAccounts[i]) == age && compareStrings(getGender(datingAccounts[i]), gender) && compareStrings(getOrientation(datingAccounts[i]), orientation))\n            {\n                mtchs[index] = datingAccounts[i];\n                index++;\n            }\n\n        }\n    return mtchs;\n\n    }\n    // using address\n    function getName(address addr) public view returns (string memory) {\n       return profiles[addr].firstName;\n    }\n\n    function getLocation(address addr) public view returns (string memory) {\n        return profiles[addr].location;\n    }\n\n    function getAge(address addr) public view returns (uint256) {\n        uint256 age = (2021 - profiles[addr].birthdayYear);\n        return age;\n    }\n\n    function getGender(address addr) public view returns (string memory) {\n        return profiles[addr].gender;\n    }\n\n    function getOrientation(address addr) public view returns (string memory) {\n        return profiles[addr].orientation;\n    }\n    // using index\n   function getName(uint256 index) public view returns (string memory) {\n        return profiles[datingAccounts[index]].firstName;\n    }\n\n    function getLocation(uint256 index) public view returns (string memory) {\n        return profiles[datingAccounts[index]].location;\n    }\n\n    function getAge(uint256 index) public view returns (uint256) {\n        uint256 age = (2021 - profiles[datingAccounts[index]].birthdayYear);\n        return age;\n    }\n\n    function getGender(uint256 index) public view returns (string memory) {\n        return profiles[datingAccounts[index]].gender;\n    }\n\n    function getOrientation(uint256 index) public view returns (string memory) {\n        return profiles[datingAccounts[index]].orientation;\n    }\n    \n\nfunction compareStrings(string memory a, string memory b) public pure returns (bool) {\n    return (keccak256(abi.encodePacked((a))) == keccak256(abi.encodePacked((b))));\n}\n    // function sendCoin(address receiver, uint256 amount)\n    //     public\n    //     returns (bool sufficient)\n    // {\n    //     if (balances[msg.sender] < amount) return false;\n    //     balances[msg.sender] -= amount;\n    //     balances[receiver] += amount;\n    //     emit Transfer(msg.sender, receiver, amount);\n    //     return true;\n    // }\n\n    // function getBalanceInEth(address addr) public view returns (uint256) {\n    //     return ConvertLib.convert(getBalance(addr), 2);\n    // }\n\n    // function getBalance(address addr) public view returns (uint256) {\n    //     return balances[addr];\n    // }\n}",
  "sourcePath": "/home/neil/Programming/chain-d/contracts/Profiles.sol",
  "compiler": {
    "name": "solc",
    "version": "0.5.16+commit.9c3226ce.Emscripten.clang"
  },
  "schemaVersion": "3.4.3",
  "updatedAt": "2021-11-17T17:36:06.038Z",
  "networkType": "ethereum",
  "devdoc": {
    "methods": {}
  },
  "userdoc": {
    "methods": {}
  }
}