{
  "contractName": "Profiles",
  "abi": [
    {
      "inputs": [],
      "payable": false,
      "stateMutability": "nonpayable",
      "type": "constructor"
    },
    {
      "constant": true,
      "inputs": [
        {
          "internalType": "uint256",
          "name": "",
          "type": "uint256"
        }
      ],
      "name": "datingAccounts",
      "outputs": [
        {
          "internalType": "address",
          "name": "",
          "type": "address"
        }
      ],
      "payable": false,
      "stateMutability": "view",
      "type": "function"
    },
    {
      "constant": true,
      "inputs": [
        {
          "internalType": "uint256",
          "name": "",
          "type": "uint256"
        }
      ],
      "name": "matches",
      "outputs": [
        {
          "internalType": "address",
          "name": "",
          "type": "address"
        }
      ],
      "payable": false,
      "stateMutability": "view",
      "type": "function"
    },
    {
      "constant": true,
      "inputs": [
        {
          "internalType": "address",
          "name": "",
          "type": "address"
        }
      ],
      "name": "profiles",
      "outputs": [
        {
          "internalType": "address",
          "name": "addr",
          "type": "address"
        },
        {
          "internalType": "string",
          "name": "firstName",
          "type": "string"
        },
        {
          "internalType": "string",
          "name": "location",
          "type": "string"
        },
        {
          "internalType": "uint256",
          "name": "birthdayYear",
          "type": "uint256"
        },
        {
          "internalType": "string",
          "name": "gender",
          "type": "string"
        },
        {
          "internalType": "string",
          "name": "orientation",
          "type": "string"
        }
      ],
      "payable": false,
      "stateMutability": "view",
      "type": "function"
    },
    {
      "constant": false,
      "inputs": [
        {
          "internalType": "string",
          "name": "firstName",
          "type": "string"
        },
        {
          "internalType": "string",
          "name": "location",
          "type": "string"
        },
        {
          "internalType": "uint256",
          "name": "birthdayYear",
          "type": "uint256"
        },
        {
          "internalType": "string",
          "name": "gender",
          "type": "string"
        },
        {
          "internalType": "string",
          "name": "orientation",
          "type": "string"
        }
      ],
      "name": "createProfile",
      "outputs": [],
      "payable": false,
      "stateMutability": "nonpayable",
      "type": "function"
    },
    {
      "constant": true,
      "inputs": [],
      "name": "getAccounts",
      "outputs": [
        {
          "internalType": "address[]",
          "name": "",
          "type": "address[]"
        }
      ],
      "payable": false,
      "stateMutability": "view",
      "type": "function"
    },
    {
      "constant": true,
      "inputs": [
        {
          "internalType": "address",
          "name": "acct",
          "type": "address"
        }
      ],
      "name": "getAccount",
      "outputs": [
        {
          "internalType": "string",
          "name": "",
          "type": "string"
        },
        {
          "internalType": "string",
          "name": "",
          "type": "string"
        },
        {
          "internalType": "uint256",
          "name": "",
          "type": "uint256"
        },
        {
          "internalType": "string",
          "name": "",
          "type": "string"
        },
        {
          "internalType": "string",
          "name": "",
          "type": "string"
        }
      ],
      "payable": false,
      "stateMutability": "view",
      "type": "function"
    },
    {
      "constant": true,
      "inputs": [
        {
          "internalType": "uint256",
          "name": "age",
          "type": "uint256"
        },
        {
          "internalType": "string",
          "name": "gender",
          "type": "string"
        },
        {
          "internalType": "string",
          "name": "orientation",
          "type": "string"
        }
      ],
      "name": "makeMatches",
      "outputs": [
        {
          "internalType": "address[]",
          "name": "",
          "type": "address[]"
        }
      ],
      "payable": false,
      "stateMutability": "view",
      "type": "function"
    },
    {
      "constant": true,
      "inputs": [
        {
          "internalType": "address",
          "name": "addr",
          "type": "address"
        }
      ],
      "name": "getName",
      "outputs": [
        {
          "internalType": "string",
          "name": "",
          "type": "string"
        }
      ],
      "payable": false,
      "stateMutability": "view",
      "type": "function"
    },
    {
      "constant": true,
      "inputs": [
        {
          "internalType": "uint256",
          "name": "index",
          "type": "uint256"
        }
      ],
      "name": "getName",
      "outputs": [
        {
          "internalType": "string",
          "name": "",
          "type": "string"
        }
      ],
      "payable": false,
      "stateMutability": "view",
      "type": "function"
    },
    {
      "constant": true,
      "inputs": [
        {
          "internalType": "uint256",
          "name": "index",
          "type": "uint256"
        }
      ],
      "name": "getLocation",
      "outputs": [
        {
          "internalType": "string",
          "name": "",
          "type": "string"
        }
      ],
      "payable": false,
      "stateMutability": "view",
      "type": "function"
    },
    {
      "constant": true,
      "inputs": [
        {
          "internalType": "address",
          "name": "addr",
          "type": "address"
        }
      ],
      "name": "getLocation",
      "outputs": [
        {
          "internalType": "string",
          "name": "",
          "type": "string"
        }
      ],
      "payable": false,
      "stateMutability": "view",
      "type": "function"
    },
    {
      "constant": true,
      "inputs": [
        {
          "internalType": "uint256",
          "name": "index",
          "type": "uint256"
        }
      ],
      "name": "getAge",
      "outputs": [
        {
          "internalType": "uint256",
          "name": "",
          "type": "uint256"
        }
      ],
      "payable": false,
      "stateMutability": "view",
      "type": "function"
    },
    {
      "constant": true,
      "inputs": [
        {
          "internalType": "address",
          "name": "addr",
          "type": "address"
        }
      ],
      "name": "getAge",
      "outputs": [
        {
          "internalType": "uint256",
          "name": "",
          "type": "uint256"
        }
      ],
      "payable": false,
      "stateMutability": "view",
      "type": "function"
    },
    {
      "constant": true,
      "inputs": [
        {
          "internalType": "address",
          "name": "addr",
          "type": "address"
        }
      ],
      "name": "getGender",
      "outputs": [
        {
          "internalType": "string",
          "name": "",
          "type": "string"
        }
      ],
      "payable": false,
      "stateMutability": "view",
      "type": "function"
    },
    {
      "constant": true,
      "inputs": [
        {
          "internalType": "uint256",
          "name": "index",
          "type": "uint256"
        }
      ],
      "name": "getGender",
      "outputs": [
        {
          "internalType": "string",
          "name": "",
          "type": "string"
        }
      ],
      "payable": false,
      "stateMutability": "view",
      "type": "function"
    },
    {
      "constant": true,
      "inputs": [
        {
          "internalType": "uint256",
          "name": "index",
          "type": "uint256"
        }
      ],
      "name": "getOrientation",
      "outputs": [
        {
          "internalType": "string",
          "name": "",
          "type": "string"
        }
      ],
      "payable": false,
      "stateMutability": "view",
      "type": "function"
    },
    {
      "constant": true,
      "inputs": [
        {
          "internalType": "address",
          "name": "addr",
          "type": "address"
        }
      ],
      "name": "getOrientation",
      "outputs": [
        {
          "internalType": "string",
          "name": "",
          "type": "string"
        }
      ],
      "payable": false,
      "stateMutability": "view",
      "type": "function"
    },
    {
      "constant": true,
      "inputs": [
        {
          "internalType": "string",
          "name": "a",
          "type": "string"
        },
        {
          "internalType": "string",
          "name": "b",
          "type": "string"
        }
      ],
      "name": "compareStrings",
      "outputs": [
        {
          "internalType": "bool",
          "name": "",
          "type": "bool"
        }
      ],
      "payable": false,
      "stateMutability": "pure",
      "type": "function"
    }
  ],
  "bytecode": "0x608060405234801561001057600080fd5b50611aa7806100206000396000f3fe608060405234801561001057600080fd5b50600436106101165760003560e01c80637f7b1393116100a2578063c394134211610071578063c3941342146109aa578063ca8851d8146109d0578063d9e0dc59146109f6578063e06d2eb514610a1c578063fbcbc0f114610a3957610116565b80637f7b1393146106585780638a48ac0314610675578063bbe156271461067d578063bed34bba1461086d57610116565b80635fd4b08a116100e95780635fd4b08a146103e657806368778ff7146104815780636b8ff5741461060157806371692b7f1461061e578063775f0e4f1461063b57610116565b80630acfb4d91461011b5780630e37008a1461035857806338451598146103875780634768d4ef146103ad575b600080fd5b610356600480360360a081101561013157600080fd5b810190602081018135600160201b81111561014b57600080fd5b82018360208201111561015d57600080fd5b803590602001918460018302840111600160201b8311171561017e57600080fd5b91908080601f0160208091040260200160405190810160405280939291908181526020018383808284376000920191909152509295949360208101935035915050600160201b8111156101d057600080fd5b8201836020820111156101e257600080fd5b803590602001918460018302840111600160201b8311171561020357600080fd5b91908080601f01602080910402602001604051908101604052809392919081815260200183838082843760009201919091525092958435959094909350604081019250602001359050600160201b81111561025d57600080fd5b82018360208201111561026f57600080fd5b803590602001918460018302840111600160201b8311171561029057600080fd5b91908080601f0160208091040260200160405190810160405280939291908181526020018383808284376000920191909152509295949360208101935035915050600160201b8111156102e257600080fd5b8201836020820111156102f457600080fd5b803590602001918460018302840111600160201b8311171561031557600080fd5b91908080601f016020809104026020016040519081016040528093929190818152602001838380828437600092019190915250929550610c10945050505050565b005b6103756004803603602081101561036e57600080fd5b5035610d44565b60408051918252519081900360200190f35b6103756004803603602081101561039d57600080fd5b50356001600160a01b0316610d8b565b6103ca600480360360208110156103c357600080fd5b5035610dad565b604080516001600160a01b039092168252519081900360200190f35b61040c600480360360208110156103fc57600080fd5b50356001600160a01b0316610dd4565b6040805160208082528351818301528351919283929083019185019080838360005b8381101561044657818101518382015260200161042e565b50505050905090810190601f1680156104735780820380516001836020036101000a031916815260200191505b509250505060405180910390f35b6105b16004803603606081101561049757600080fd5b81359190810190604081016020820135600160201b8111156104b857600080fd5b8201836020820111156104ca57600080fd5b803590602001918460018302840111600160201b831117156104eb57600080fd5b91908080601f0160208091040260200160405190810160405280939291908181526020018383808284376000920191909152509295949360208101935035915050600160201b81111561053d57600080fd5b82018360208201111561054f57600080fd5b803590602001918460018302840111600160201b8311171561057057600080fd5b91908080601f016020809104026020016040519081016040528093929190818152602001838380828437600092019190915250929550610e80945050505050565b60408051602080825283518183015283519192839290830191858101910280838360005b838110156105ed5781810151838201526020016105d5565b505050509050019250505060405180910390f35b61040c6004803603602081101561061757600080fd5b5035610fa3565b61040c6004803603602081101561063457600080fd5b503561103c565b6103ca6004803603602081101561065157600080fd5b50356110d0565b61040c6004803603602081101561066e57600080fd5b50356110dd565b6105b1611172565b6106a36004803603602081101561069357600080fd5b50356001600160a01b03166111d5565b60405180876001600160a01b03166001600160a01b031681526020018060200180602001868152602001806020018060200185810385528a818151815260200191508051906020019080838360005b8381101561070a5781810151838201526020016106f2565b50505050905090810190601f1680156107375780820380516001836020036101000a031916815260200191505b5085810384528951815289516020918201918b019080838360005b8381101561076a578181015183820152602001610752565b50505050905090810190601f1680156107975780820380516001836020036101000a031916815260200191505b50858103835287518152875160209182019189019080838360005b838110156107ca5781810151838201526020016107b2565b50505050905090810190601f1680156107f75780820380516001836020036101000a031916815260200191505b50858103825286518152865160209182019188019080838360005b8381101561082a578181015183820152602001610812565b50505050905090810190601f1680156108575780820380516001836020036101000a031916815260200191505b509a505050505050505050505060405180910390f35b6109966004803603604081101561088357600080fd5b810190602081018135600160201b81111561089d57600080fd5b8201836020820111156108af57600080fd5b803590602001918460018302840111600160201b831117156108d057600080fd5b91908080601f0160208091040260200160405190810160405280939291908181526020018383808284376000920191909152509295949360208101935035915050600160201b81111561092257600080fd5b82018360208201111561093457600080fd5b803590602001918460018302840111600160201b8311171561095557600080fd5b91908080601f01602080910402602001604051908101604052809392919081815260200183838082843760009201919091525092955061143f945050505050565b604080519115158252519081900360200190f35b61040c600480360360208110156109c057600080fd5b50356001600160a01b0316611526565b61040c600480360360208110156109e657600080fd5b50356001600160a01b031661159b565b61040c60048036036020811015610a0c57600080fd5b50356001600160a01b0316611610565b61040c60048036036020811015610a3257600080fd5b5035611684565b610a5f60048036036020811015610a4f57600080fd5b50356001600160a01b0316611718565b604051808060200180602001868152602001806020018060200185810385528a818151815260200191508051906020019080838360005b83811015610aae578181015183820152602001610a96565b50505050905090810190601f168015610adb5780820380516001836020036101000a031916815260200191505b5085810384528951815289516020918201918b019080838360005b83811015610b0e578181015183820152602001610af6565b50505050905090810190601f168015610b3b5780820380516001836020036101000a031916815260200191505b50858103835287518152875160209182019189019080838360005b83811015610b6e578181015183820152602001610b56565b50505050905090810190601f168015610b9b5780820380516001836020036101000a031916815260200191505b50858103825286518152865160209182019188019080838360005b83811015610bce578181015183820152602001610bb6565b50505050905090810190601f168015610bfb5780820380516001836020036101000a031916815260200191505b50995050505050505050505060405180910390f35b610c1861199b565b506040805160c081018252338082526020808301898152838501899052606084018890526080840187905260a0840186905260009283526002825293909120825181546001600160a01b0319166001600160a01b0390911617815592518051929384939092610c8e9260018501929101906119da565b5060408201518051610caa9160028401916020909101906119da565b506060820151600382015560808201518051610cd09160048401916020909101906119da565b5060a08201518051610cec9160058401916020909101906119da565b50509051600080546001810182559080527f290decd9548b62a8d60345a988386fc84ba6bc95484008f6362f93160ef3e5630180546001600160a01b0319166001600160a01b03909216919091179055505050505050565b60008060026000808581548110610d5757fe5b60009182526020808320909101546001600160a01b031683528201929092526040019020600301546107e503915050919050565b6001600160a01b03166000908152600260205260409020600301546107e50390565b60018181548110610dba57fe5b6000918252602090912001546001600160a01b0316905081565b6001600160a01b0381166000908152600260208181526040928390206001908101805485519281161561010002600019011693909304601f8101839004830282018301909452838152606093909291830182828015610e745780601f10610e4957610100808354040283529160200191610e74565b820191906000526020600020905b815481529060010190602001808311610e5757829003601f168201915b50505050509050919050565b6060806000805b60005460001901811015610f985786610ec060008381548110610ea657fe5b6000918252602090912001546001600160a01b0316610d8b565b148015610efb5750610efb610ef560008381548110610edb57fe5b6000918252602090912001546001600160a01b031661159b565b8761143f565b8015610f355750610f35610f2f60008381548110610f1557fe5b6000918252602090912001546001600160a01b0316611526565b8661143f565b15610f905760008181548110610f4757fe5b9060005260206000200160009054906101000a90046001600160a01b0316838381518110610f7157fe5b6001600160a01b03909216602092830291909101909101526001909101905b600101610e87565b509095945050505050565b606060026000808481548110610fb557fe5b60009182526020808320909101546001600160a01b031683528281019390935260409182019020600190810180548351601f6002600019958416156101000295909501909216939093049081018590048502830185019093528282529092909190830182828015610e745780601f10610e4957610100808354040283529160200191610e74565b60606002600080848154811061104e57fe5b6000918252602080832091909101546001600160a01b0316835282810193909352604091820190206005018054825160026101006001841615026000190190921691909104601f810185900485028201850190935282815292909190830182828015610e745780601f10610e4957610100808354040283529160200191610e74565b60008181548110610dba57fe5b6060600260008084815481106110ef57fe5b60009182526020808320909101546001600160a01b031683528281019390935260409182019020600290810180548351601f60001960018416156101000201909216939093049081018590048502830185019093528282529092909190830182828015610e745780601f10610e4957610100808354040283529160200191610e74565b606060008054806020026020016040519081016040528092919081815260200182805480156111ca57602002820191906000526020600020905b81546001600160a01b031681526001909101906020018083116111ac575b505050505090505b90565b6002602081815260009283526040928390208054600180830180548751601f600019948316156101000294909401909116969096049182018590048502860185019096528085526001600160a01b039091169491939283018282801561127c5780601f106112515761010080835404028352916020019161127c565b820191906000526020600020905b81548152906001019060200180831161125f57829003601f168201915b50505060028085018054604080516020601f600019610100600187161502019094169590950492830185900485028101850190915281815295969594509092509083018282801561130e5780601f106112e35761010080835404028352916020019161130e565b820191906000526020600020905b8154815290600101906020018083116112f157829003601f168201915b50505050600383015460048401805460408051602060026001851615610100026000190190941693909304601f810184900484028201840190925281815295969395939450908301828280156113a55780601f1061137a576101008083540402835291602001916113a5565b820191906000526020600020905b81548152906001019060200180831161138857829003601f168201915b5050505060058301805460408051602060026001851615610100026000190190941693909304601f81018490048402820184019092528181529495949350908301828280156114355780601f1061140a57610100808354040283529160200191611435565b820191906000526020600020905b81548152906001019060200180831161141857829003601f168201915b5050505050905086565b6000816040516020018082805190602001908083835b602083106114745780518252601f199092019160209182019101611455565b6001836020036101000a03801982511681845116808217855250505050505090500191505060405160208183030381529060405280519060200120836040516020018082805190602001908083835b602083106114e25780518252601f1990920191602091820191016114c3565b6001836020036101000a0380198251168184511680821785525050505050509050019150506040516020818303038152906040528051906020012014905092915050565b6001600160a01b038116600090815260026020818152604092839020600501805484516001821615610100026000190190911693909304601f81018390048302840183019094528383526060939091830182828015610e745780601f10610e4957610100808354040283529160200191610e74565b6001600160a01b038116600090815260026020818152604092839020600401805484516001821615610100026000190190911693909304601f81018390048302840183019094528383526060939091830182828015610e745780601f10610e4957610100808354040283529160200191610e74565b6001600160a01b0381166000908152600260208181526040928390208201805484516001821615610100026000190190911693909304601f81018390048302840183019094528383526060939091830182828015610e745780601f10610e4957610100808354040283529160200191610e74565b60606002600080848154811061169657fe5b6000918252602080832091909101546001600160a01b0316835282810193909352604091820190206004018054825160026101006001841615026000190190921691909104601f810185900485028201850190935282815292909190830182828015610e745780601f10610e4957610100808354040283529160200191610e74565b6001600160a01b0381166000908152600260208181526040808420600381015460018083018054855192811615610100026000190116879004601f8101879004870283018701909552848252606097889790968896879693959284019492936004810193600590910192909187918301828280156117d75780601f106117ac576101008083540402835291602001916117d7565b820191906000526020600020905b8154815290600101906020018083116117ba57829003601f168201915b5050875460408051602060026001851615610100026000190190941693909304601f8101849004840282018401909252818152959a50899450925084019050828280156118655780601f1061183a57610100808354040283529160200191611865565b820191906000526020600020905b81548152906001019060200180831161184857829003601f168201915b5050855460408051602060026001851615610100026000190190941693909304601f8101849004840282018401909252818152959950879450925084019050828280156118f35780601f106118c8576101008083540402835291602001916118f3565b820191906000526020600020905b8154815290600101906020018083116118d657829003601f168201915b5050845460408051602060026001851615610100026000190190941693909304601f8101849004840282018401909252818152959750869450925084019050828280156119815780601f1061195657610100808354040283529160200191611981565b820191906000526020600020905b81548152906001019060200180831161196457829003601f168201915b505050505090509450945094509450945091939590929450565b6040518060c0016040528060006001600160a01b0316815260200160608152602001606081526020016000815260200160608152602001606081525090565b828054600181600116156101000203166002900490600052602060002090601f016020900481019282601f10611a1b57805160ff1916838001178555611a48565b82800160010185558215611a48579182015b82811115611a48578251825591602001919060010190611a2d565b50611a54929150611a58565b5090565b6111d291905b80821115611a545760008155600101611a5e56fea265627a7a723158200691eae5d67686d44d2af15ebdc675cc26b5977421b3635e4ee67c4e610619a264736f6c63430005100032",
  "source": "// SPDX-License-Identifier: MIT\npragma solidity >=0.4.25;\n\nimport \"./ConvertLib.sol\";\n\n\n\n// This is just a simple example of a coin-like contract.\n// It is not standards compatible and cannot be expected to talk to other\n// coin/token contracts. If you want to create a standards-compliant\n// token, see: https://github.com/ConsenSys/Tokens. Cheers!\n\ncontract Profiles {\n    struct Profile {\n        address addr;\n        string firstName;\n        string location;\n        uint256 birthdayYear;\n        string gender;\n        string orientation;\n    }\n    \n    address[] public datingAccounts;\n    address[] public matches;\n\n\n    mapping(address => Profile) public profiles;\n\n    constructor() public {}\n\n    function createProfile(\n        string memory firstName,\n        string memory location,\n        uint256 birthdayYear,\n        string memory gender,\n        string memory orientation\n\n    ) public {\n        Profile memory account = Profile(msg.sender, firstName, location, birthdayYear, gender, orientation);\n        profiles[msg.sender] = account;\n        datingAccounts.push(account.addr);\n    }\n\n    function getAccounts() public view returns (address[] memory){\n        return datingAccounts;\n    }\n\n    function getAccount(address acct) public view returns (string memory, string memory, uint256, string memory, string memory){\n        return (profiles[acct].firstName, profiles[acct].location, profiles[acct].birthdayYear, profiles[acct].gender, profiles[acct].orientation);\n    }\n\n    function makeMatches(uint256 age, string memory gender, string memory orientation) public view returns(address[] memory){\n        address[] memory mtchs;\n        uint index = 0;\n        for(uint i = 0; i < datingAccounts.length-1;i++){\n            if(getAge(datingAccounts[i]) == age && compareStrings(getGender(datingAccounts[i]), gender) && compareStrings(getOrientation(datingAccounts[i]), orientation))\n            {\n                mtchs[index] = datingAccounts[i];\n                index++;\n            }\n\n        }\n    return mtchs;\n\n    }\n    // using address\n    function getName(address addr) public view returns (string memory) {\n       return profiles[addr].firstName;\n    }\n\n    function getLocation(address addr) public view returns (string memory) {\n        return profiles[addr].location;\n    }\n\n    function getAge(address addr) public view returns (uint256) {\n        uint256 age = (2021 - profiles[addr].birthdayYear);\n        return age;\n    }\n\n    function getGender(address addr) public view returns (string memory) {\n        return profiles[addr].gender;\n    }\n\n    function getOrientation(address addr) public view returns (string memory) {\n        return profiles[addr].orientation;\n    }\n    // using index\n   function getName(uint256 index) public view returns (string memory) {\n        return profiles[datingAccounts[index]].firstName;\n    }\n\n    function getLocation(uint256 index) public view returns (string memory) {\n        return profiles[datingAccounts[index]].location;\n    }\n\n    function getAge(uint256 index) public view returns (uint256) {\n        uint256 age = (2021 - profiles[datingAccounts[index]].birthdayYear);\n        return age;\n    }\n\n    function getGender(uint256 index) public view returns (string memory) {\n        return profiles[datingAccounts[index]].gender;\n    }\n\n    function getOrientation(uint256 index) public view returns (string memory) {\n        return profiles[datingAccounts[index]].orientation;\n    }\n    \n\nfunction compareStrings(string memory a, string memory b) public pure returns (bool) {\n    return (keccak256(abi.encodePacked((a))) == keccak256(abi.encodePacked((b))));\n}\n    // function sendCoin(address receiver, uint256 amount)\n    //     public\n    //     returns (bool sufficient)\n    // {\n    //     if (balances[msg.sender] < amount) return false;\n    //     balances[msg.sender] -= amount;\n    //     balances[receiver] += amount;\n    //     emit Transfer(msg.sender, receiver, amount);\n    //     return true;\n    // }\n\n    // function getBalanceInEth(address addr) public view returns (uint256) {\n    //     return ConvertLib.convert(getBalance(addr), 2);\n    // }\n\n    // function getBalance(address addr) public view returns (uint256) {\n    //     return balances[addr];\n    // }\n}",
  "sourcePath": "/Users/andreaslorgen/Documents/GitHub/chain-d/contracts/Profiles.sol",
  "compiler": {
    "name": "solc",
    "version": "0.5.16+commit.9c3226ce.Emscripten.clang"
  },
  "schemaVersion": "3.4.3",
  "updatedAt": "2021-11-18T00:08:30.524Z",
  "devdoc": {
    "methods": {}
  },
  "userdoc": {
    "methods": {}
  }
}