{
  "contractName": "Swipes",
  "abi": [
    {
      "inputs": [],
      "payable": false,
      "stateMutability": "nonpayable",
      "type": "constructor"
    },
    {
      "constant": true,
      "inputs": [
        {
          "internalType": "address",
          "name": "",
          "type": "address"
        },
        {
          "internalType": "uint256",
          "name": "",
          "type": "uint256"
        }
      ],
      "name": "swipes",
      "outputs": [
        {
          "internalType": "bytes",
          "name": "encryptedAddress",
          "type": "bytes"
        },
        {
          "internalType": "uint256",
          "name": "timestamp",
          "type": "uint256"
        },
        {
          "internalType": "uint256",
          "name": "fee",
          "type": "uint256"
        }
      ],
      "payable": false,
      "stateMutability": "view",
      "type": "function"
    },
    {
      "constant": false,
      "inputs": [
        {
          "internalType": "bytes",
          "name": "encryptedMatch",
          "type": "bytes"
        }
      ],
      "name": "addSwipe",
      "outputs": [],
      "payable": true,
      "stateMutability": "payable",
      "type": "function"
    },
    {
      "constant": true,
      "inputs": [
        {
          "internalType": "address",
          "name": "_address",
          "type": "address"
        }
      ],
      "name": "getNumSwipes",
      "outputs": [
        {
          "internalType": "uint256",
          "name": "",
          "type": "uint256"
        }
      ],
      "payable": false,
      "stateMutability": "view",
      "type": "function"
    },
    {
      "constant": true,
      "inputs": [
        {
          "internalType": "address",
          "name": "_address",
          "type": "address"
        },
        {
          "internalType": "uint256",
          "name": "index",
          "type": "uint256"
        }
      ],
      "name": "getSwipe",
      "outputs": [
        {
          "internalType": "bytes",
          "name": "",
          "type": "bytes"
        },
        {
          "internalType": "uint256",
          "name": "",
          "type": "uint256"
        },
        {
          "internalType": "uint256",
          "name": "",
          "type": "uint256"
        }
      ],
      "payable": false,
      "stateMutability": "view",
      "type": "function"
    },
    {
      "constant": true,
      "inputs": [],
      "name": "getBalance",
      "outputs": [
        {
          "internalType": "uint256",
          "name": "",
          "type": "uint256"
        }
      ],
      "payable": false,
      "stateMutability": "view",
      "type": "function"
    }
  ],
  "bytecode": "0x608060405234801561001057600080fd5b50610746806100206000396000f3fe60806040526004361061004a5760003560e01c806312065fe01461004f5780631e6e2caf1461007a57806365d06e741461015c5780636b563adb1461023e578063d07fcbf6146102a3575b600080fd5b34801561005b57600080fd5b5061006461035e565b6040518082815260200191505060405180910390f35b34801561008657600080fd5b506100d36004803603604081101561009d57600080fd5b81019080803573ffffffffffffffffffffffffffffffffffffffff16906020019092919080359060200190929190505050610366565b6040518080602001848152602001838152602001828103825285818151815260200191508051906020019080838360005b8381101561011f578082015181840152602081019050610104565b50505050905090810190601f16801561014c5780820380516001836020036101000a031916815260200191505b5094505050505060405180910390f35b34801561016857600080fd5b506101b56004803603604081101561017f57600080fd5b81019080803573ffffffffffffffffffffffffffffffffffffffff16906020019092919080359060200190929190505050610442565b6040518080602001848152602001838152602001828103825285818151815260200191508051906020019080838360005b838110156102015780820151818401526020810190506101e6565b50505050905090810190601f16801561022e5780820380516001836020036101000a031916815260200191505b5094505050505060405180910390f35b34801561024a57600080fd5b5061028d6004803603602081101561026157600080fd5b81019080803573ffffffffffffffffffffffffffffffffffffffff16906020019092919050505061055a565b6040518082815260200191505060405180910390f35b61035c600480360360208110156102b957600080fd5b81019080803590602001906401000000008111156102d657600080fd5b8201836020820111156102e857600080fd5b8035906020019184600183028401116401000000008311171561030a57600080fd5b91908080601f016020809104026020016040519081016040528093929190818152602001838380828437600081840152601f19601f8201169050808301925050505050505091929192905050506105a5565b005b600047905090565b6000602052816000526040600020818154811061037f57fe5b906000526020600020906003020160009150915050806000018054600181600116156101000203166002900480601f01602080910402602001604051908101604052809291908181526020018280546001816001161561010002031660029004801561042c5780601f106104015761010080835404028352916020019161042c565b820191906000526020600020905b81548152906001019060200180831161040f57829003601f168201915b5050505050908060010154908060020154905083565b606060008060008060008773ffffffffffffffffffffffffffffffffffffffff1673ffffffffffffffffffffffffffffffffffffffff168152602001908152602001600020858154811061049257fe5b906000526020600020906003020190508060000181600101548260020154828054600181600116156101000203166002900480601f0160208091040260200160405190810160405280929190818152602001828054600181600116156101000203166002900480156105455780601f1061051a57610100808354040283529160200191610545565b820191906000526020600020905b81548152906001019060200180831161052857829003601f168201915b50505050509250935093509350509250925092565b60008060008373ffffffffffffffffffffffffffffffffffffffff1673ffffffffffffffffffffffffffffffffffffffff168152602001908152602001600020805490509050919050565b633b9aca003410610669576000803373ffffffffffffffffffffffffffffffffffffffff1673ffffffffffffffffffffffffffffffffffffffff16815260200190815260200160002060405180606001604052808381526020014281526020013481525090806001815401808255809150509060018203906000526020600020906003020160009091929091909150600082015181600001908051906020019061065092919061066c565b5060208201518160010155604082015181600201555050505b50565b828054600181600116156101000203166002900490600052602060002090601f016020900481019282601f106106ad57805160ff19168380011785556106db565b828001600101855582156106db579182015b828111156106da5782518255916020019190600101906106bf565b5b5090506106e891906106ec565b5090565b61070e91905b8082111561070a5760008160009055506001016106f2565b5090565b9056fea265627a7a723158202d72c01a3791c48f128e4b94d7459101760c7c55bdb3edb72e28f1d07fb678e364736f6c63430005100032",
  "source": "pragma solidity >=0.4.25;\n\ncontract Swipes {\n    struct Swipe {\n        bytes encryptedAddress;\n        uint256 timestamp;\n        uint256 fee;\n    }\n\n    mapping(address => Swipe[]) public swipes;\n\n    constructor() public {}\n\n    function addSwipe(bytes memory encryptedMatch) public payable {\n        if (msg.value >= 1000000000) {\n            swipes[msg.sender].push(\n                Swipe(encryptedMatch, block.timestamp, msg.value)\n            );\n        }\n    }\n\n    function getNumSwipes(address _address) public view returns (uint256) {\n        return swipes[_address].length;\n    }\n\n    function getSwipe(address _address, uint256 index)\n        public\n        view\n        returns (\n            bytes memory,\n            uint256,\n            uint256\n        )\n    {\n        Swipe storage swipe = swipes[_address][index];\n        return (swipe.encryptedAddress, swipe.timestamp, swipe.fee);\n    }\n\n    function getBalance() public view returns (uint256) {\n        return address(this).balance;\n    }\n}\n",
  "sourcePath": "/home/neil/Programming/chain-d/contracts/Swipes.sol",
  "compiler": {
    "name": "solc",
    "version": "0.5.16+commit.9c3226ce.Emscripten.clang"
  },
  "schemaVersion": "3.4.3",
  "updatedAt": "2021-11-17T18:03:24.051Z",
  "devdoc": {
    "methods": {}
  },
  "userdoc": {
    "methods": {}
  }
}