{
  "contractName": "Swipes",
  "abi": [
    {
      "inputs": [],
      "payable": false,
      "stateMutability": "nonpayable",
      "type": "constructor"
    },
    {
      "constant": true,
      "inputs": [
        {
          "internalType": "address",
          "name": "",
          "type": "address"
        },
        {
          "internalType": "uint256",
          "name": "",
          "type": "uint256"
        }
      ],
      "name": "swipes",
      "outputs": [
        {
          "internalType": "bytes",
          "name": "encryptedAddress",
          "type": "bytes"
        },
        {
          "internalType": "uint256",
          "name": "timestamp",
          "type": "uint256"
        },
        {
          "internalType": "uint256",
          "name": "fee",
          "type": "uint256"
        }
      ],
      "payable": false,
      "stateMutability": "view",
      "type": "function"
    },
    {
      "constant": false,
      "inputs": [
        {
          "internalType": "bytes",
          "name": "encryptedMatch",
          "type": "bytes"
        }
      ],
      "name": "addSwipe",
      "outputs": [],
      "payable": true,
      "stateMutability": "payable",
      "type": "function"
    },
    {
      "constant": true,
      "inputs": [
        {
          "internalType": "address",
          "name": "_address",
          "type": "address"
        }
      ],
      "name": "getNumSwipes",
      "outputs": [
        {
          "internalType": "uint256",
          "name": "",
          "type": "uint256"
        }
      ],
      "payable": false,
      "stateMutability": "view",
      "type": "function"
    },
    {
      "constant": true,
      "inputs": [],
      "name": "getBalance",
      "outputs": [
        {
          "internalType": "uint256",
          "name": "",
          "type": "uint256"
        }
      ],
      "payable": false,
      "stateMutability": "view",
      "type": "function"
    }
  ],
  "bytecode": "0x608060405234801561001057600080fd5b50610541806100206000396000f3fe60806040526004361061003f5760003560e01c806312065fe0146100445780631e6e2caf1461006f5780636b563adb14610151578063d07fcbf6146101b6575b600080fd5b34801561005057600080fd5b50610059610271565b6040518082815260200191505060405180910390f35b34801561007b57600080fd5b506100c86004803603604081101561009257600080fd5b81019080803573ffffffffffffffffffffffffffffffffffffffff16906020019092919080359060200190929190505050610279565b6040518080602001848152602001838152602001828103825285818151815260200191508051906020019080838360005b838110156101145780820151818401526020810190506100f9565b50505050905090810190601f1680156101415780820380516001836020036101000a031916815260200191505b5094505050505060405180910390f35b34801561015d57600080fd5b506101a06004803603602081101561017457600080fd5b81019080803573ffffffffffffffffffffffffffffffffffffffff169060200190929190505050610355565b6040518082815260200191505060405180910390f35b61026f600480360360208110156101cc57600080fd5b81019080803590602001906401000000008111156101e957600080fd5b8201836020820111156101fb57600080fd5b8035906020019184600183028401116401000000008311171561021d57600080fd5b91908080601f016020809104026020016040519081016040528093929190818152602001838380828437600081840152601f19601f8201169050808301925050505050505091929192905050506103a0565b005b600047905090565b6000602052816000526040600020818154811061029257fe5b906000526020600020906003020160009150915050806000018054600181600116156101000203166002900480601f01602080910402602001604051908101604052809291908181526020018280546001816001161561010002031660029004801561033f5780601f106103145761010080835404028352916020019161033f565b820191906000526020600020905b81548152906001019060200180831161032257829003601f168201915b5050505050908060010154908060020154905083565b60008060008373ffffffffffffffffffffffffffffffffffffffff1673ffffffffffffffffffffffffffffffffffffffff168152602001908152602001600020805490509050919050565b633b9aca003410610464576000803373ffffffffffffffffffffffffffffffffffffffff1673ffffffffffffffffffffffffffffffffffffffff16815260200190815260200160002060405180606001604052808381526020014281526020013481525090806001815401808255809150509060018203906000526020600020906003020160009091929091909150600082015181600001908051906020019061044b929190610467565b5060208201518160010155604082015181600201555050505b50565b828054600181600116156101000203166002900490600052602060002090601f016020900481019282601f106104a857805160ff19168380011785556104d6565b828001600101855582156104d6579182015b828111156104d55782518255916020019190600101906104ba565b5b5090506104e391906104e7565b5090565b61050991905b808211156105055760008160009055506001016104ed565b5090565b9056fea265627a7a723158202e9d2ffd2b2e9a28337b8973225a762a5360e4a678adcff4ec5441866808b1cf64736f6c63430005100032",
  "source": "pragma solidity >=0.4.25;\n\ncontract Swipes {\n    struct Swipe {\n        bytes encryptedAddress;\n        uint256 timestamp;\n        uint256 fee;\n    }\n\n    mapping(address => Swipe[]) public swipes;\n\n    constructor() public {}\n\n    function addSwipe(bytes memory encryptedMatch) public payable {\n        if (msg.value >= 1000000000) {\n            swipes[msg.sender].push(\n                Swipe(encryptedMatch, block.timestamp, msg.value)\n            );\n        }\n    }\n\n    function getNumSwipes(address _address) public view returns (uint256) {\n        return swipes[_address].length;\n    }\n\n    function getBalance() public view returns (uint256) {\n        return address(this).balance;\n    }\n}\n",
  "sourcePath": "/home/neil/Programming/chain-d/contracts/Swipes.sol",
  "compiler": {
    "name": "solc",
    "version": "0.5.16+commit.9c3226ce.Emscripten.clang"
  },
  "schemaVersion": "3.4.3",
  "updatedAt": "2021-11-17T13:41:40.385Z",
  "networkType": "ethereum",
  "devdoc": {
    "methods": {}
  },
  "userdoc": {
    "methods": {}
  }
}