{
  "contractName": "Swipes",
  "abi": [
    {
      "inputs": [],
      "payable": false,
      "stateMutability": "nonpayable",
      "type": "constructor"
    },
    {
      "constant": true,
      "inputs": [
        {
          "internalType": "uint256",
          "name": "",
          "type": "uint256"
        }
      ],
      "name": "addresses",
      "outputs": [
        {
          "internalType": "address",
          "name": "",
          "type": "address"
        }
      ],
      "payable": false,
      "stateMutability": "view",
      "type": "function"
    },
    {
      "constant": true,
      "inputs": [
        {
          "internalType": "address",
          "name": "",
          "type": "address"
        },
        {
          "internalType": "uint256",
          "name": "",
          "type": "uint256"
        }
      ],
      "name": "swipes",
      "outputs": [
        {
          "internalType": "bytes",
          "name": "encryptedAddress",
          "type": "bytes"
        },
        {
          "internalType": "uint256",
          "name": "timestamp",
          "type": "uint256"
        },
        {
          "internalType": "uint256",
          "name": "fee",
          "type": "uint256"
        }
      ],
      "payable": false,
      "stateMutability": "view",
      "type": "function"
    },
    {
      "constant": false,
      "inputs": [
        {
          "internalType": "bytes",
          "name": "encryptedMatch",
          "type": "bytes"
        }
      ],
      "name": "addSwipe",
      "outputs": [],
      "payable": true,
      "stateMutability": "payable",
      "type": "function"
    },
    {
      "constant": true,
      "inputs": [],
      "name": "getAddresses",
      "outputs": [
        {
          "internalType": "address[]",
          "name": "",
          "type": "address[]"
        }
      ],
      "payable": false,
      "stateMutability": "view",
      "type": "function"
    },
    {
      "constant": true,
      "inputs": [
        {
          "internalType": "address",
          "name": "_address",
          "type": "address"
        }
      ],
      "name": "getNumSwipes",
      "outputs": [
        {
          "internalType": "uint256",
          "name": "",
          "type": "uint256"
        }
      ],
      "payable": false,
      "stateMutability": "view",
      "type": "function"
    },
    {
      "constant": true,
      "inputs": [
        {
          "internalType": "address",
          "name": "_address",
          "type": "address"
        },
        {
          "internalType": "uint256",
          "name": "index",
          "type": "uint256"
        }
      ],
      "name": "getSwipe",
      "outputs": [
        {
          "internalType": "bytes",
          "name": "",
          "type": "bytes"
        },
        {
          "internalType": "uint256",
          "name": "",
          "type": "uint256"
        },
        {
          "internalType": "uint256",
          "name": "",
          "type": "uint256"
        }
      ],
      "payable": false,
      "stateMutability": "view",
      "type": "function"
    },
    {
      "constant": true,
      "inputs": [],
      "name": "getBalance",
      "outputs": [
        {
          "internalType": "uint256",
          "name": "",
          "type": "uint256"
        }
      ],
      "payable": false,
      "stateMutability": "view",
      "type": "function"
    }
  ],
  "bytecode": "0x608060405234801561001057600080fd5b506109d4806100206000396000f3fe6080604052600436106100705760003560e01c80636b563adb1161004e5780636b563adb14610264578063a39fac12146102c9578063d07fcbf614610335578063edf26d9b146103f057610070565b806312065fe0146100755780631e6e2caf146100a057806365d06e7414610182575b600080fd5b34801561008157600080fd5b5061008a61046b565b6040518082815260200191505060405180910390f35b3480156100ac57600080fd5b506100f9600480360360408110156100c357600080fd5b81019080803573ffffffffffffffffffffffffffffffffffffffff16906020019092919080359060200190929190505050610473565b6040518080602001848152602001838152602001828103825285818151815260200191508051906020019080838360005b8381101561014557808201518184015260208101905061012a565b50505050905090810190601f1680156101725780820380516001836020036101000a031916815260200191505b5094505050505060405180910390f35b34801561018e57600080fd5b506101db600480360360408110156101a557600080fd5b81019080803573ffffffffffffffffffffffffffffffffffffffff1690602001909291908035906020019092919050505061054f565b6040518080602001848152602001838152602001828103825285818151815260200191508051906020019080838360005b8381101561022757808201518184015260208101905061020c565b50505050905090810190601f1680156102545780820380516001836020036101000a031916815260200191505b5094505050505060405180910390f35b34801561027057600080fd5b506102b36004803603602081101561028757600080fd5b81019080803573ffffffffffffffffffffffffffffffffffffffff169060200190929190505050610667565b6040518082815260200191505060405180910390f35b3480156102d557600080fd5b506102de6106b2565b6040518080602001828103825283818151815260200191508051906020019060200280838360005b83811015610321578082015181840152602081019050610306565b505050509050019250505060405180910390f35b6103ee6004803603602081101561034b57600080fd5b810190808035906020019064010000000081111561036857600080fd5b82018360208201111561037a57600080fd5b8035906020019184600183028401116401000000008311171561039c57600080fd5b91908080601f016020809104026020016040519081016040528093929190818152602001838380828437600081840152601f19601f820116905080830192505050505050509192919290505050610740565b005b3480156103fc57600080fd5b506104296004803603602081101561041357600080fd5b81019080803590602001909291905050506108be565b604051808273ffffffffffffffffffffffffffffffffffffffff1673ffffffffffffffffffffffffffffffffffffffff16815260200191505060405180910390f35b600047905090565b6000602052816000526040600020818154811061048c57fe5b906000526020600020906003020160009150915050806000018054600181600116156101000203166002900480601f0160208091040260200160405190810160405280929190818152602001828054600181600116156101000203166002900480156105395780601f1061050e57610100808354040283529160200191610539565b820191906000526020600020905b81548152906001019060200180831161051c57829003601f168201915b5050505050908060010154908060020154905083565b606060008060008060008773ffffffffffffffffffffffffffffffffffffffff1673ffffffffffffffffffffffffffffffffffffffff168152602001908152602001600020858154811061059f57fe5b906000526020600020906003020190508060000181600101548260020154828054600181600116156101000203166002900480601f0160208091040260200160405190810160405280929190818152602001828054600181600116156101000203166002900480156106525780601f1061062757610100808354040283529160200191610652565b820191906000526020600020905b81548152906001019060200180831161063557829003601f168201915b50505050509250935093509350509250925092565b60008060008373ffffffffffffffffffffffffffffffffffffffff1673ffffffffffffffffffffffffffffffffffffffff168152602001908152602001600020805490509050919050565b6060600180548060200260200160405190810160405280929190818152602001828054801561073657602002820191906000526020600020905b8160009054906101000a900473ffffffffffffffffffffffffffffffffffffffff1673ffffffffffffffffffffffffffffffffffffffff16815260200190600101908083116106ec575b5050505050905090565b6305f5e100341015610751576108bb565b60008060003373ffffffffffffffffffffffffffffffffffffffff1673ffffffffffffffffffffffffffffffffffffffff1681526020019081526020016000208054905014156108025760013390806001815401808255809150509060018203906000526020600020016000909192909190916101000a81548173ffffffffffffffffffffffffffffffffffffffff021916908373ffffffffffffffffffffffffffffffffffffffff160217905550505b6000803373ffffffffffffffffffffffffffffffffffffffff1673ffffffffffffffffffffffffffffffffffffffff1681526020019081526020016000206040518060600160405280838152602001428152602001348152509080600181540180825580915050906001820390600052602060002090600302016000909192909190915060008201518160000190805190602001906108a29291906108fa565b5060208201518160010155604082015181600201555050505b50565b600181815481106108cb57fe5b906000526020600020016000915054906101000a900473ffffffffffffffffffffffffffffffffffffffff1681565b828054600181600116156101000203166002900490600052602060002090601f016020900481019282601f1061093b57805160ff1916838001178555610969565b82800160010185558215610969579182015b8281111561096857825182559160200191906001019061094d565b5b509050610976919061097a565b5090565b61099c91905b80821115610998576000816000905550600101610980565b5090565b9056fea265627a7a72315820600acec34ce4e0c95a4c33cc875f58b176c499c9dfab4488fb7d9769c84d7bfc64736f6c63430005100032",
  "source": "pragma solidity >=0.4.25;\n\ncontract Swipes {\n    struct Swipe {\n        bytes encryptedAddress;\n        uint256 timestamp;\n        uint256 fee;\n    }\n\n    // map from address to swipes that address has sent\n    mapping(address => Swipe[]) public swipes;\n    address[] public addresses;\n\n    constructor() public {}\n\n    function addSwipe(bytes memory encryptedMatch) public payable {\n        // reject if < 1 ETH sent\n        if (msg.value < 100000000) return;\n\n        // push sender to address list\n        if (swipes[msg.sender].length == 0) {\n            addresses.push(msg.sender);\n        }\n\n        // add the swipe\n        swipes[msg.sender].push(\n            Swipe(encryptedMatch, block.timestamp, msg.value)\n        );\n    }\n\n    function getAddresses() public view returns (address[] memory) {\n        return addresses;\n    }\n\n    function getNumSwipes(address _address) public view returns (uint256) {\n        // get the number of swipes made by an address\n        return swipes[_address].length;\n    }\n\n    function getSwipe(address _address, uint256 index)\n        public\n        view\n        returns (\n            bytes memory,\n            uint256,\n            uint256\n        )\n    {\n        // get a specific swipe made by an address\n        Swipe storage swipe = swipes[_address][index];\n        return (swipe.encryptedAddress, swipe.timestamp, swipe.fee);\n    }\n\n    function getBalance() public view returns (uint256) {\n        // return the smart contract's balance\n        return address(this).balance;\n    }\n}\n",
  "sourcePath": "/home/neil/Programming/chain-d/contracts/Swipes.sol",
  "compiler": {
    "name": "solc",
    "version": "0.5.16+commit.9c3226ce.Emscripten.clang"
  },
  "schemaVersion": "3.4.3",
  "updatedAt": "2021-11-20T01:58:48.129Z",
  "networkType": "ethereum",
  "devdoc": {
    "methods": {}
  },
  "userdoc": {
    "methods": {}
  }
}