{
  "contractName": "Swipes",
  "abi": [
    {
      "inputs": [],
      "payable": false,
      "stateMutability": "nonpayable",
      "type": "constructor"
    },
    {
      "constant": true,
      "inputs": [
        {
          "internalType": "address",
          "name": "",
          "type": "address"
        },
        {
          "internalType": "uint256",
          "name": "",
          "type": "uint256"
        }
      ],
      "name": "swipes",
      "outputs": [
        {
          "internalType": "bytes",
          "name": "encryptedAddress",
          "type": "bytes"
        },
        {
          "internalType": "uint256",
          "name": "timestamp",
          "type": "uint256"
        },
        {
          "internalType": "uint256",
          "name": "fee",
          "type": "uint256"
        }
      ],
      "payable": false,
      "stateMutability": "view",
      "type": "function"
    },
    {
      "constant": false,
      "inputs": [
        {
          "internalType": "bytes",
          "name": "encryptedMatch",
          "type": "bytes"
        }
      ],
      "name": "addSwipe",
      "outputs": [],
      "payable": true,
      "stateMutability": "payable",
      "type": "function"
    },
    {
      "constant": true,
      "inputs": [
        {
          "internalType": "address",
          "name": "_address",
          "type": "address"
        }
      ],
      "name": "getNumSwipes",
      "outputs": [
        {
          "internalType": "uint256",
          "name": "",
          "type": "uint256"
        }
      ],
      "payable": false,
      "stateMutability": "view",
      "type": "function"
    },
    {
      "constant": true,
      "inputs": [],
      "name": "getBalance",
      "outputs": [
        {
          "internalType": "uint256",
          "name": "",
          "type": "uint256"
        }
      ],
      "payable": false,
      "stateMutability": "view",
      "type": "function"
    }
  ],
  "bytecode": "0x608060405234801561001057600080fd5b50610439806100206000396000f3fe60806040526004361061003f5760003560e01c806312065fe0146100445780631e6e2caf1461006b5780636b563adb1461012a578063d07fcbf61461015d575b600080fd5b34801561005057600080fd5b50610059610205565b60408051918252519081900360200190f35b34801561007757600080fd5b506100a46004803603604081101561008e57600080fd5b506001600160a01b03813516906020013561020a565b6040518080602001848152602001838152602001828103825285818151815260200191508051906020019080838360005b838110156100ed5781810151838201526020016100d5565b50505050905090810190601f16801561011a5780820380516001836020036101000a031916815260200191505b5094505050505060405180910390f35b34801561013657600080fd5b506100596004803603602081101561014d57600080fd5b50356001600160a01b03166102d2565b6102036004803603602081101561017357600080fd5b81019060208101813564010000000081111561018e57600080fd5b8201836020820111156101a057600080fd5b803590602001918460018302840111640100000000831117156101c257600080fd5b91908080601f0160208091040260200160405190810160405280939291908181526020018383808284376000920191909152509295506102ed945050505050565b005b475b90565b6000602052816000526040600020818154811061022357fe5b60009182526020918290206003919091020180546040805160026001841615610100026000190190931692909204601f8101859004850283018501909152808252919450925083918301828280156102bc5780601f10610291576101008083540402835291602001916102bc565b820191906000526020600020905b81548152906001019060200180831161029f57829003601f168201915b5050505050908060010154908060020154905083565b6001600160a01b031660009081526020819052604090205490565b633b9aca00341061036957336000908152602081815260408083208151606081018352858152428185015234928101929092528054600181018083559185529383902082518051929593946003909402909101926103509284929091019061036c565b5060208201518160010155604082015181600201555050505b50565b828054600181600116156101000203166002900490600052602060002090601f016020900481019282601f106103ad57805160ff19168380011785556103da565b828001600101855582156103da579182015b828111156103da5782518255916020019190600101906103bf565b506103e69291506103ea565b5090565b61020791905b808211156103e657600081556001016103f056fea265627a7a72315820ed281a599afb10ea9765af97ad3eaefb51ecd451039c4c600f667252181e7f9564736f6c63430005100032",
  "source": "pragma solidity >=0.4.25;\n\ncontract Swipes {\n    struct Swipe {\n        bytes encryptedAddress;\n        uint256 timestamp;\n        uint256 fee;\n    }\n\n    mapping(address => Swipe[]) public swipes;\n\n    constructor() public {}\n\n    function addSwipe(bytes memory encryptedMatch) public payable {\n        if (msg.value >= 1000000000) {\n            swipes[msg.sender].push(\n                Swipe(encryptedMatch, block.timestamp, msg.value)\n            );\n        }\n    }\n\n    function getNumSwipes(address _address) public view returns (uint256) {\n        return swipes[_address].length;\n    }\n\n    function getBalance() public view returns (uint256) {\n        return address(this).balance;\n    }\n}\n",
  "sourcePath": "/Users/andreaslorgen/Documents/GitHub/chain-d/contracts/Swipes.sol",
  "compiler": {
    "name": "solc",
    "version": "0.5.16+commit.9c3226ce.Emscripten.clang"
  },
  "schemaVersion": "3.4.3",
  "updatedAt": "2021-11-18T00:08:30.527Z",
  "devdoc": {
    "methods": {}
  },
  "userdoc": {
    "methods": {}
  }
}